{
  "_format": "hh-sol-artifact-1",
  "contractName": "DFrame",
  "sourceName": "contracts/DFrame.sol",
  "abi": [
    {
      "inputs": [],
      "stateMutability": "nonpayable",
      "type": "constructor"
    },
    {
      "anonymous": false,
      "inputs": [
        {
          "indexed": true,
          "internalType": "address",
          "name": "owner",
          "type": "address"
        },
        {
          "indexed": true,
          "internalType": "address",
          "name": "spender",
          "type": "address"
        },
        {
          "indexed": false,
          "internalType": "uint256",
          "name": "value",
          "type": "uint256"
        }
      ],
      "name": "Approval",
      "type": "event"
    },
    {
      "anonymous": false,
      "inputs": [
        {
          "indexed": true,
          "internalType": "address",
          "name": "previousOwner",
          "type": "address"
        },
        {
          "indexed": true,
          "internalType": "address",
          "name": "newOwner",
          "type": "address"
        }
      ],
      "name": "OwnershipTransferred",
      "type": "event"
    },
    {
      "anonymous": false,
      "inputs": [
        {
          "indexed": false,
          "internalType": "uint256",
          "name": "id",
          "type": "uint256"
        }
      ],
      "name": "Snapshot",
      "type": "event"
    },
    {
      "anonymous": false,
      "inputs": [
        {
          "indexed": true,
          "internalType": "address",
          "name": "from",
          "type": "address"
        },
        {
          "indexed": true,
          "internalType": "address",
          "name": "to",
          "type": "address"
        },
        {
          "indexed": false,
          "internalType": "uint256",
          "name": "value",
          "type": "uint256"
        }
      ],
      "name": "Transfer",
      "type": "event"
    },
    {
      "inputs": [
        {
          "internalType": "address",
          "name": "owner",
          "type": "address"
        },
        {
          "internalType": "address",
          "name": "spender",
          "type": "address"
        }
      ],
      "name": "allowance",
      "outputs": [
        {
          "internalType": "uint256",
          "name": "",
          "type": "uint256"
        }
      ],
      "stateMutability": "view",
      "type": "function"
    },
    {
      "inputs": [
        {
          "internalType": "address",
          "name": "spender",
          "type": "address"
        },
        {
          "internalType": "uint256",
          "name": "amount",
          "type": "uint256"
        }
      ],
      "name": "approve",
      "outputs": [
        {
          "internalType": "bool",
          "name": "",
          "type": "bool"
        }
      ],
      "stateMutability": "nonpayable",
      "type": "function"
    },
    {
      "inputs": [
        {
          "internalType": "address",
          "name": "account",
          "type": "address"
        }
      ],
      "name": "balanceOf",
      "outputs": [
        {
          "internalType": "uint256",
          "name": "",
          "type": "uint256"
        }
      ],
      "stateMutability": "view",
      "type": "function"
    },
    {
      "inputs": [
        {
          "internalType": "address",
          "name": "account",
          "type": "address"
        },
        {
          "internalType": "uint256",
          "name": "snapshotId",
          "type": "uint256"
        }
      ],
      "name": "balanceOfAt",
      "outputs": [
        {
          "internalType": "uint256",
          "name": "",
          "type": "uint256"
        }
      ],
      "stateMutability": "view",
      "type": "function"
    },
    {
      "inputs": [
        {
          "internalType": "uint256",
          "name": "amount",
          "type": "uint256"
        }
      ],
      "name": "burn",
      "outputs": [],
      "stateMutability": "nonpayable",
      "type": "function"
    },
    {
      "inputs": [
        {
          "internalType": "address",
          "name": "account",
          "type": "address"
        },
        {
          "internalType": "uint256",
          "name": "amount",
          "type": "uint256"
        }
      ],
      "name": "burnFrom",
      "outputs": [],
      "stateMutability": "nonpayable",
      "type": "function"
    },
    {
      "inputs": [],
      "name": "decimals",
      "outputs": [
        {
          "internalType": "uint8",
          "name": "",
          "type": "uint8"
        }
      ],
      "stateMutability": "view",
      "type": "function"
    },
    {
      "inputs": [
        {
          "internalType": "address",
          "name": "spender",
          "type": "address"
        },
        {
          "internalType": "uint256",
          "name": "subtractedValue",
          "type": "uint256"
        }
      ],
      "name": "decreaseAllowance",
      "outputs": [
        {
          "internalType": "bool",
          "name": "",
          "type": "bool"
        }
      ],
      "stateMutability": "nonpayable",
      "type": "function"
    },
    {
      "inputs": [
        {
          "internalType": "address",
          "name": "spender",
          "type": "address"
        },
        {
          "internalType": "uint256",
          "name": "addedValue",
          "type": "uint256"
        }
      ],
      "name": "increaseAllowance",
      "outputs": [
        {
          "internalType": "bool",
          "name": "",
          "type": "bool"
        }
      ],
      "stateMutability": "nonpayable",
      "type": "function"
    },
    {
      "inputs": [],
      "name": "name",
      "outputs": [
        {
          "internalType": "string",
          "name": "",
          "type": "string"
        }
      ],
      "stateMutability": "view",
      "type": "function"
    },
    {
      "inputs": [],
      "name": "owner",
      "outputs": [
        {
          "internalType": "address",
          "name": "",
          "type": "address"
        }
      ],
      "stateMutability": "view",
      "type": "function"
    },
    {
      "inputs": [],
      "name": "renounceOwnership",
      "outputs": [],
      "stateMutability": "nonpayable",
      "type": "function"
    },
    {
      "inputs": [],
      "name": "snapshot",
      "outputs": [],
      "stateMutability": "nonpayable",
      "type": "function"
    },
    {
      "inputs": [],
      "name": "symbol",
      "outputs": [
        {
          "internalType": "string",
          "name": "",
          "type": "string"
        }
      ],
      "stateMutability": "view",
      "type": "function"
    },
    {
      "inputs": [],
      "name": "totalSupply",
      "outputs": [
        {
          "internalType": "uint256",
          "name": "",
          "type": "uint256"
        }
      ],
      "stateMutability": "view",
      "type": "function"
    },
    {
      "inputs": [
        {
          "internalType": "uint256",
          "name": "snapshotId",
          "type": "uint256"
        }
      ],
      "name": "totalSupplyAt",
      "outputs": [
        {
          "internalType": "uint256",
          "name": "",
          "type": "uint256"
        }
      ],
      "stateMutability": "view",
      "type": "function"
    },
    {
      "inputs": [
        {
          "internalType": "address",
          "name": "to",
          "type": "address"
        },
        {
          "internalType": "uint256",
          "name": "amount",
          "type": "uint256"
        }
      ],
      "name": "transfer",
      "outputs": [
        {
          "internalType": "bool",
          "name": "",
          "type": "bool"
        }
      ],
      "stateMutability": "nonpayable",
      "type": "function"
    },
    {
      "inputs": [
        {
          "internalType": "address",
          "name": "from",
          "type": "address"
        },
        {
          "internalType": "address",
          "name": "to",
          "type": "address"
        },
        {
          "internalType": "uint256",
          "name": "amount",
          "type": "uint256"
        }
      ],
      "name": "transferFrom",
      "outputs": [
        {
          "internalType": "bool",
          "name": "",
          "type": "bool"
        }
      ],
      "stateMutability": "nonpayable",
      "type": "function"
    },
    {
      "inputs": [
        {
          "internalType": "address",
          "name": "newOwner",
          "type": "address"
        }
      ],
      "name": "transferOwnership",
      "outputs": [],
      "stateMutability": "nonpayable",
      "type": "function"
    }
  ],
  "bytecode": "0x60806040523480156200001157600080fd5b506040518060400160405280600781526020017f44204672616d65000000000000000000000000000000000000000000000000008152506040518060400160405280600381526020017f444654000000000000000000000000000000000000000000000000000000000081525081600390816200008f9190620008d7565b508060049081620000a19190620008d7565b505050620000c4620000b86200010a60201b60201c565b6200011260201b60201c565b6200010433620000d9620001d860201b60201c565b600a620000e7919062000b4e565b6305f5e100620000f8919062000b9f565b620001e160201b60201c565b62000d40565b600033905090565b6000600960009054906101000a900473ffffffffffffffffffffffffffffffffffffffff16905081600960006101000a81548173ffffffffffffffffffffffffffffffffffffffff021916908373ffffffffffffffffffffffffffffffffffffffff1602179055508173ffffffffffffffffffffffffffffffffffffffff168173ffffffffffffffffffffffffffffffffffffffff167f8be0079c531659141344cd1fd0a4f28419497f9722a3daafe3b4186f6b6457e060405160405180910390a35050565b60006012905090565b600073ffffffffffffffffffffffffffffffffffffffff168273ffffffffffffffffffffffffffffffffffffffff160362000253576040517f08c379a00000000000000000000000000000000000000000000000000000000081526004016200024a9062000c4b565b60405180910390fd5b62000267600083836200035960201b60201c565b80600260008282546200027b919062000c6d565b92505081905550806000808473ffffffffffffffffffffffffffffffffffffffff1673ffffffffffffffffffffffffffffffffffffffff1681526020019081526020016000206000828254620002d2919062000c6d565b925050819055508173ffffffffffffffffffffffffffffffffffffffff16600073ffffffffffffffffffffffffffffffffffffffff167fddf252ad1be2c89b69c2b068fc378daa952ba7f163c4a11628f55a4df523b3ef8360405162000339919062000cb9565b60405180910390a362000355600083836200037660201b60201c565b5050565b620003718383836200037b60201b620008a61760201c565b505050565b505050565b620003938383836200047460201b6200095e1760201c565b600073ffffffffffffffffffffffffffffffffffffffff168373ffffffffffffffffffffffffffffffffffffffff1603620003ef57620003d9826200047960201b60201c565b620003e9620004dc60201b60201c565b6200046f565b600073ffffffffffffffffffffffffffffffffffffffff168273ffffffffffffffffffffffffffffffffffffffff16036200044b5762000435836200047960201b60201c565b62000445620004dc60201b60201c565b6200046e565b6200045c836200047960201b60201c565b6200046d826200047960201b60201c565b5b5b505050565b505050565b620004d9600560008373ffffffffffffffffffffffffffffffffffffffff1673ffffffffffffffffffffffffffffffffffffffff168152602001908152602001600020620004cd836200050060201b60201c565b6200054860201b60201c565b50565b620004fe6006620004f2620005d460201b60201c565b6200054860201b60201c565b565b60008060008373ffffffffffffffffffffffffffffffffffffffff1673ffffffffffffffffffffffffffffffffffffffff168152602001908152602001600020549050919050565b60006200055a620005de60201b60201c565b9050806200057184600001620005fc60201b60201c565b1015620005cf5782600001819080600181540180825580915050600190039060005260206000200160009091909190915055826001018290806001815401808255809150506001900390600052602060002001600090919091909150555b505050565b6000600254905090565b6000620005f760086200064f60201b620009631760201c565b905090565b6000808280549050036200061457600090506200064a565b816001838054905062000628919062000cd6565b815481106200063c576200063b62000d11565b5b906000526020600020015490505b919050565b600081600001549050919050565b600081519050919050565b7f4e487b7100000000000000000000000000000000000000000000000000000000600052604160045260246000fd5b7f4e487b7100000000000000000000000000000000000000000000000000000000600052602260045260246000fd5b60006002820490506001821680620006df57607f821691505b602082108103620006f557620006f462000697565b5b50919050565b60008190508160005260206000209050919050565b60006020601f8301049050919050565b600082821b905092915050565b6000600883026200075f7fffffffffffffffffffffffffffffffffffffffffffffffffffffffffffffffff8262000720565b6200076b868362000720565b95508019841693508086168417925050509392505050565b6000819050919050565b6000819050919050565b6000620007b8620007b2620007ac8462000783565b6200078d565b62000783565b9050919050565b6000819050919050565b620007d48362000797565b620007ec620007e382620007bf565b8484546200072d565b825550505050565b600090565b62000803620007f4565b62000810818484620007c9565b505050565b5b8181101562000838576200082c600082620007f9565b60018101905062000816565b5050565b601f82111562000887576200085181620006fb565b6200085c8462000710565b810160208510156200086c578190505b620008846200087b8562000710565b83018262000815565b50505b505050565b600082821c905092915050565b6000620008ac600019846008026200088c565b1980831691505092915050565b6000620008c7838362000899565b9150826002028217905092915050565b620008e2826200065d565b67ffffffffffffffff811115620008fe57620008fd62000668565b5b6200090a8254620006c6565b620009178282856200083c565b600060209050601f8311600181146200094f57600084156200093a578287015190505b620009468582620008b9565b865550620009b6565b601f1984166200095f86620006fb565b60005b82811015620009895784890151825560018201915060208501945060208101905062000962565b86831015620009a95784890151620009a5601f89168262000899565b8355505b6001600288020188555050505b505050505050565b7f4e487b7100000000000000000000000000000000000000000000000000000000600052601160045260246000fd5b60008160011c9050919050565b6000808291508390505b600185111562000a4c5780860481111562000a245762000a23620009be565b5b600185161562000a345780820291505b808102905062000a4485620009ed565b945062000a04565b94509492505050565b60008262000a67576001905062000b3a565b8162000a77576000905062000b3a565b816001811462000a90576002811462000a9b5762000ad1565b600191505062000b3a565b60ff84111562000ab05762000aaf620009be565b5b8360020a91508482111562000aca5762000ac9620009be565b5b5062000b3a565b5060208310610133831016604e8410600b841016171562000b0b5782820a90508381111562000b055762000b04620009be565b5b62000b3a565b62000b1a8484846001620009fa565b9250905081840481111562000b345762000b33620009be565b5b81810290505b9392505050565b600060ff82169050919050565b600062000b5b8262000783565b915062000b688362000b41565b925062000b977fffffffffffffffffffffffffffffffffffffffffffffffffffffffffffffffff848462000a55565b905092915050565b600062000bac8262000783565b915062000bb98362000783565b925082820262000bc98162000783565b9150828204841483151762000be35762000be2620009be565b5b5092915050565b600082825260208201905092915050565b7f45524332303a206d696e7420746f20746865207a65726f206164647265737300600082015250565b600062000c33601f8362000bea565b915062000c408262000bfb565b602082019050919050565b6000602082019050818103600083015262000c668162000c24565b9050919050565b600062000c7a8262000783565b915062000c878362000783565b925082820190508082111562000ca25762000ca1620009be565b5b92915050565b62000cb38162000783565b82525050565b600060208201905062000cd0600083018462000ca8565b92915050565b600062000ce38262000783565b915062000cf08362000783565b925082820390508181111562000d0b5762000d0a620009be565b5b92915050565b7f4e487b7100000000000000000000000000000000000000000000000000000000600052603260045260246000fd5b6120e28062000d506000396000f3fe608060405234801561001057600080fd5b50600436106101215760003560e01c8063715018a6116100ad578063981b24d011610071578063981b24d0146102f8578063a457c2d714610328578063a9059cbb14610358578063dd62ed3e14610388578063f2fde38b146103b857610121565b8063715018a61461028c57806379cc6790146102965780638da5cb5b146102b257806395d89b41146102d05780639711715a146102ee57610121565b8063313ce567116100f4578063313ce567146101c257806339509351146101e057806342966c68146102105780634ee2cd7e1461022c57806370a082311461025c57610121565b806306fdde0314610126578063095ea7b31461014457806318160ddd1461017457806323b872dd14610192575b600080fd5b61012e6103d4565b60405161013b91906115ab565b60405180910390f35b61015e60048036038101906101599190611666565b610466565b60405161016b91906116c1565b60405180910390f35b61017c610489565b60405161018991906116eb565b60405180910390f35b6101ac60048036038101906101a79190611706565b610493565b6040516101b991906116c1565b60405180910390f35b6101ca6104c2565b6040516101d79190611775565b60405180910390f35b6101fa60048036038101906101f59190611666565b6104cb565b60405161020791906116c1565b60405180910390f35b61022a60048036038101906102259190611790565b610502565b005b61024660048036038101906102419190611666565b610516565b60405161025391906116eb565b60405180910390f35b610276600480360381019061027191906117bd565b610586565b60405161028391906116eb565b60405180910390f35b6102946105ce565b005b6102b060048036038101906102ab9190611666565b6105e2565b005b6102ba610602565b6040516102c791906117f9565b60405180910390f35b6102d861062c565b6040516102e591906115ab565b60405180910390f35b6102f66106be565b005b610312600480360381019061030d9190611790565b6106d1565b60405161031f91906116eb565b60405180910390f35b610342600480360381019061033d9190611666565b610702565b60405161034f91906116c1565b60405180910390f35b610372600480360381019061036d9190611666565b610779565b60405161037f91906116c1565b60405180910390f35b6103a2600480360381019061039d9190611814565b61079c565b6040516103af91906116eb565b60405180910390f35b6103d260048036038101906103cd91906117bd565b610823565b005b6060600380546103e390611883565b80601f016020809104026020016040519081016040528092919081815260200182805461040f90611883565b801561045c5780601f106104315761010080835404028352916020019161045c565b820191906000526020600020905b81548152906001019060200180831161043f57829003601f168201915b5050505050905090565b600080610471610971565b905061047e818585610979565b600191505092915050565b6000600254905090565b60008061049e610971565b90506104ab858285610b42565b6104b6858585610bce565b60019150509392505050565b60006012905090565b6000806104d6610971565b90506104f78185856104e8858961079c565b6104f291906118e3565b610979565b600191505092915050565b61051361050d610971565b82610e4d565b50565b600080600061056384600560008873ffffffffffffffffffffffffffffffffffffffff1673ffffffffffffffffffffffffffffffffffffffff168152602001908152602001600020611023565b915091508161057a5761057585610586565b61057c565b805b9250505092915050565b60008060008373ffffffffffffffffffffffffffffffffffffffff1673ffffffffffffffffffffffffffffffffffffffff168152602001908152602001600020549050919050565b6105d6611118565b6105e06000611196565b565b6105f4826105ee610971565b83610b42565b6105fe8282610e4d565b5050565b6000600960009054906101000a900473ffffffffffffffffffffffffffffffffffffffff16905090565b60606004805461063b90611883565b80601f016020809104026020016040519081016040528092919081815260200182805461066790611883565b80156106b45780601f10610689576101008083540402835291602001916106b4565b820191906000526020600020905b81548152906001019060200180831161069757829003601f168201915b5050505050905090565b6106c6611118565b6106ce61125c565b50565b60008060006106e1846006611023565b91509150816106f7576106f2610489565b6106f9565b805b92505050919050565b60008061070d610971565b9050600061071b828661079c565b905083811015610760576040517f08c379a000000000000000000000000000000000000000000000000000000000815260040161075790611989565b60405180910390fd5b61076d8286868403610979565b60019250505092915050565b600080610784610971565b9050610791818585610bce565b600191505092915050565b6000600160008473ffffffffffffffffffffffffffffffffffffffff1673ffffffffffffffffffffffffffffffffffffffff16815260200190815260200160002060008373ffffffffffffffffffffffffffffffffffffffff1673ffffffffffffffffffffffffffffffffffffffff16815260200190815260200160002054905092915050565b61082b611118565b600073ffffffffffffffffffffffffffffffffffffffff168173ffffffffffffffffffffffffffffffffffffffff160361089a576040517f08c379a000000000000000000000000000000000000000000000000000000000815260040161089190611a1b565b60405180910390fd5b6108a381611196565b50565b6108b183838361095e565b600073ffffffffffffffffffffffffffffffffffffffff168373ffffffffffffffffffffffffffffffffffffffff16036108fb576108ee826112b2565b6108f6611305565b610959565b600073ffffffffffffffffffffffffffffffffffffffff168273ffffffffffffffffffffffffffffffffffffffff160361094557610938836112b2565b610940611305565b610958565b61094e836112b2565b610957826112b2565b5b5b505050565b505050565b600081600001549050919050565b600033905090565b600073ffffffffffffffffffffffffffffffffffffffff168373ffffffffffffffffffffffffffffffffffffffff16036109e8576040517f08c379a00000000000000000000000000000000000000000000000000000000081526004016109df90611aad565b60405180910390fd5b600073ffffffffffffffffffffffffffffffffffffffff168273ffffffffffffffffffffffffffffffffffffffff1603610a57576040517f08c379a0000000000000000000000000000000000000000000000000000000008152600401610a4e90611b3f565b60405180910390fd5b80600160008573ffffffffffffffffffffffffffffffffffffffff1673ffffffffffffffffffffffffffffffffffffffff16815260200190815260200160002060008473ffffffffffffffffffffffffffffffffffffffff1673ffffffffffffffffffffffffffffffffffffffff168152602001908152602001600020819055508173ffffffffffffffffffffffffffffffffffffffff168373ffffffffffffffffffffffffffffffffffffffff167f8c5be1e5ebec7d5bd14f71427d1e84f3dd0314c0f7b2291e5b200ac8c7c3b92583604051610b3591906116eb565b60405180910390a3505050565b6000610b4e848461079c565b90507fffffffffffffffffffffffffffffffffffffffffffffffffffffffffffffffff8114610bc85781811015610bba576040517f08c379a0000000000000000000000000000000000000000000000000000000008152600401610bb190611bab565b60405180910390fd5b610bc78484848403610979565b5b50505050565b600073ffffffffffffffffffffffffffffffffffffffff168373ffffffffffffffffffffffffffffffffffffffff1603610c3d576040517f08c379a0000000000000000000000000000000000000000000000000000000008152600401610c3490611c3d565b60405180910390fd5b600073ffffffffffffffffffffffffffffffffffffffff168273ffffffffffffffffffffffffffffffffffffffff1603610cac576040517f08c379a0000000000000000000000000000000000000000000000000000000008152600401610ca390611ccf565b60405180910390fd5b610cb7838383611319565b60008060008573ffffffffffffffffffffffffffffffffffffffff1673ffffffffffffffffffffffffffffffffffffffff16815260200190815260200160002054905081811015610d3d576040517f08c379a0000000000000000000000000000000000000000000000000000000008152600401610d3490611d61565b60405180910390fd5b8181036000808673ffffffffffffffffffffffffffffffffffffffff1673ffffffffffffffffffffffffffffffffffffffff16815260200190815260200160002081905550816000808573ffffffffffffffffffffffffffffffffffffffff1673ffffffffffffffffffffffffffffffffffffffff1681526020019081526020016000206000828254610dd091906118e3565b925050819055508273ffffffffffffffffffffffffffffffffffffffff168473ffffffffffffffffffffffffffffffffffffffff167fddf252ad1be2c89b69c2b068fc378daa952ba7f163c4a11628f55a4df523b3ef84604051610e3491906116eb565b60405180910390a3610e47848484611329565b50505050565b600073ffffffffffffffffffffffffffffffffffffffff168273ffffffffffffffffffffffffffffffffffffffff1603610ebc576040517f08c379a0000000000000000000000000000000000000000000000000000000008152600401610eb390611df3565b60405180910390fd5b610ec882600083611319565b60008060008473ffffffffffffffffffffffffffffffffffffffff1673ffffffffffffffffffffffffffffffffffffffff16815260200190815260200160002054905081811015610f4e576040517f08c379a0000000000000000000000000000000000000000000000000000000008152600401610f4590611e85565b60405180910390fd5b8181036000808573ffffffffffffffffffffffffffffffffffffffff1673ffffffffffffffffffffffffffffffffffffffff168152602001908152602001600020819055508160026000828254610fa59190611ea5565b92505081905550600073ffffffffffffffffffffffffffffffffffffffff168373ffffffffffffffffffffffffffffffffffffffff167fddf252ad1be2c89b69c2b068fc378daa952ba7f163c4a11628f55a4df523b3ef8460405161100a91906116eb565b60405180910390a361101e83600084611329565b505050565b60008060008411611069576040517f08c379a000000000000000000000000000000000000000000000000000000000815260040161106090611f25565b60405180910390fd5b61107161132e565b8411156110b3576040517f08c379a00000000000000000000000000000000000000000000000000000000081526004016110aa90611f91565b60405180910390fd5b60006110cb858560000161133f90919063ffffffff16565b9050836000018054905081036110e8576000809250925050611111565b6001846001018281548110611100576110ff611fb1565b5b906000526020600020015492509250505b9250929050565b611120610971565b73ffffffffffffffffffffffffffffffffffffffff1661113e610602565b73ffffffffffffffffffffffffffffffffffffffff1614611194576040517f08c379a000000000000000000000000000000000000000000000000000000000815260040161118b9061202c565b60405180910390fd5b565b6000600960009054906101000a900473ffffffffffffffffffffffffffffffffffffffff16905081600960006101000a81548173ffffffffffffffffffffffffffffffffffffffff021916908373ffffffffffffffffffffffffffffffffffffffff1602179055508173ffffffffffffffffffffffffffffffffffffffff168173ffffffffffffffffffffffffffffffffffffffff167f8be0079c531659141344cd1fd0a4f28419497f9722a3daafe3b4186f6b6457e060405160405180910390a35050565b60006112686008611418565b600061127261132e565b90507f8030e83b04d87bef53480e26263266d6ca66863aa8506aca6f2559d18aa1cb67816040516112a391906116eb565b60405180910390a18091505090565b611302600560008373ffffffffffffffffffffffffffffffffffffffff1673ffffffffffffffffffffffffffffffffffffffff1681526020019081526020016000206112fd83610586565b61142e565b50565b6113176006611312610489565b61142e565b565b6113248383836108a6565b505050565b505050565b600061133a6008610963565b905090565b6000808380549050036113555760009050611412565b600080848054905090505b808210156113b957600061137483836114a9565b90508486828154811061138a57611389611fb1565b5b906000526020600020015411156113a3578091506113b3565b6001816113b091906118e3565b92505b50611360565b6000821180156113f1575083856001846113d39190611ea5565b815481106113e4576113e3611fb1565b5b9060005260206000200154145b1561140c576001826114039190611ea5565b92505050611412565b81925050505b92915050565b6001816000016000828254019250508190555050565b600061143861132e565b905080611447846000016114cf565b10156114a45782600001819080600181540180825580915050600190039060005260206000200160009091909190915055826001018290806001815401808255809150506001900390600052602060002001600090919091909150555b505050565b600060028284186114ba919061207b565b8284166114c791906118e3565b905092915050565b6000808280549050036114e55760009050611516565b81600183805490506114f79190611ea5565b8154811061150857611507611fb1565b5b906000526020600020015490505b919050565b600081519050919050565b600082825260208201905092915050565b60005b8381101561155557808201518184015260208101905061153a565b60008484015250505050565b6000601f19601f8301169050919050565b600061157d8261151b565b6115878185611526565b9350611597818560208601611537565b6115a081611561565b840191505092915050565b600060208201905081810360008301526115c58184611572565b905092915050565b600080fd5b600073ffffffffffffffffffffffffffffffffffffffff82169050919050565b60006115fd826115d2565b9050919050565b61160d816115f2565b811461161857600080fd5b50565b60008135905061162a81611604565b92915050565b6000819050919050565b61164381611630565b811461164e57600080fd5b50565b6000813590506116608161163a565b92915050565b6000806040838503121561167d5761167c6115cd565b5b600061168b8582860161161b565b925050602061169c85828601611651565b9150509250929050565b60008115159050919050565b6116bb816116a6565b82525050565b60006020820190506116d660008301846116b2565b92915050565b6116e581611630565b82525050565b600060208201905061170060008301846116dc565b92915050565b60008060006060848603121561171f5761171e6115cd565b5b600061172d8682870161161b565b935050602061173e8682870161161b565b925050604061174f86828701611651565b9150509250925092565b600060ff82169050919050565b61176f81611759565b82525050565b600060208201905061178a6000830184611766565b92915050565b6000602082840312156117a6576117a56115cd565b5b60006117b484828501611651565b91505092915050565b6000602082840312156117d3576117d26115cd565b5b60006117e18482850161161b565b91505092915050565b6117f3816115f2565b82525050565b600060208201905061180e60008301846117ea565b92915050565b6000806040838503121561182b5761182a6115cd565b5b60006118398582860161161b565b925050602061184a8582860161161b565b9150509250929050565b7f4e487b7100000000000000000000000000000000000000000000000000000000600052602260045260246000fd5b6000600282049050600182168061189b57607f821691505b6020821081036118ae576118ad611854565b5b50919050565b7f4e487b7100000000000000000000000000000000000000000000000000000000600052601160045260246000fd5b60006118ee82611630565b91506118f983611630565b9250828201905080821115611911576119106118b4565b5b92915050565b7f45524332303a2064656372656173656420616c6c6f77616e63652062656c6f7760008201527f207a65726f000000000000000000000000000000000000000000000000000000602082015250565b6000611973602583611526565b915061197e82611917565b604082019050919050565b600060208201905081810360008301526119a281611966565b9050919050565b7f4f776e61626c653a206e6577206f776e657220697320746865207a65726f206160008201527f6464726573730000000000000000000000000000000000000000000000000000602082015250565b6000611a05602683611526565b9150611a10826119a9565b604082019050919050565b60006020820190508181036000830152611a34816119f8565b9050919050565b7f45524332303a20617070726f76652066726f6d20746865207a65726f2061646460008201527f7265737300000000000000000000000000000000000000000000000000000000602082015250565b6000611a97602483611526565b9150611aa282611a3b565b604082019050919050565b60006020820190508181036000830152611ac681611a8a565b9050919050565b7f45524332303a20617070726f766520746f20746865207a65726f20616464726560008201527f7373000000000000000000000000000000000000000000000000000000000000602082015250565b6000611b29602283611526565b9150611b3482611acd565b604082019050919050565b60006020820190508181036000830152611b5881611b1c565b9050919050565b7f45524332303a20696e73756666696369656e7420616c6c6f77616e6365000000600082015250565b6000611b95601d83611526565b9150611ba082611b5f565b602082019050919050565b60006020820190508181036000830152611bc481611b88565b9050919050565b7f45524332303a207472616e736665722066726f6d20746865207a65726f20616460008201527f6472657373000000000000000000000000000000000000000000000000000000602082015250565b6000611c27602583611526565b9150611c3282611bcb565b604082019050919050565b60006020820190508181036000830152611c5681611c1a565b9050919050565b7f45524332303a207472616e7366657220746f20746865207a65726f206164647260008201527f6573730000000000000000000000000000000000000000000000000000000000602082015250565b6000611cb9602383611526565b9150611cc482611c5d565b604082019050919050565b60006020820190508181036000830152611ce881611cac565b9050919050565b7f45524332303a207472616e7366657220616d6f756e742065786365656473206260008201527f616c616e63650000000000000000000000000000000000000000000000000000602082015250565b6000611d4b602683611526565b9150611d5682611cef565b604082019050919050565b60006020820190508181036000830152611d7a81611d3e565b9050919050565b7f45524332303a206275726e2066726f6d20746865207a65726f2061646472657360008201527f7300000000000000000000000000000000000000000000000000000000000000602082015250565b6000611ddd602183611526565b9150611de882611d81565b604082019050919050565b60006020820190508181036000830152611e0c81611dd0565b9050919050565b7f45524332303a206275726e20616d6f756e7420657863656564732062616c616e60008201527f6365000000000000000000000000000000000000000000000000000000000000602082015250565b6000611e6f602283611526565b9150611e7a82611e13565b604082019050919050565b60006020820190508181036000830152611e9e81611e62565b9050919050565b6000611eb082611630565b9150611ebb83611630565b9250828203905081811115611ed357611ed26118b4565b5b92915050565b7f4552433230536e617073686f743a206964206973203000000000000000000000600082015250565b6000611f0f601683611526565b9150611f1a82611ed9565b602082019050919050565b60006020820190508181036000830152611f3e81611f02565b9050919050565b7f4552433230536e617073686f743a206e6f6e6578697374656e74206964000000600082015250565b6000611f7b601d83611526565b9150611f8682611f45565b602082019050919050565b60006020820190508181036000830152611faa81611f6e565b9050919050565b7f4e487b7100000000000000000000000000000000000000000000000000000000600052603260045260246000fd5b7f4f776e61626c653a2063616c6c6572206973206e6f7420746865206f776e6572600082015250565b6000612016602083611526565b915061202182611fe0565b602082019050919050565b6000602082019050818103600083015261204581612009565b9050919050565b7f4e487b7100000000000000000000000000000000000000000000000000000000600052601260045260246000fd5b600061208682611630565b915061209183611630565b9250826120a1576120a061204c565b5b82820490509291505056fea264697066735822122008a66c510f25896fd1dee3045efc07ea431d4bca0a4bcf021ef9071c552a87eb64736f6c63430008110033",
  "linkReferences": {},
  "deployedLinkReferences": {}
}