{
  "_format": "hh-sol-artifact-1",
  "contractName": "DFrame",
  "sourceName": "contracts/DFrame.sol",
  "abi": [
    {
      "inputs": [],
      "stateMutability": "nonpayable",
      "type": "constructor"
    },
    {
      "anonymous": false,
      "inputs": [
        {
          "indexed": true,
          "internalType": "address",
          "name": "owner",
          "type": "address"
        },
        {
          "indexed": true,
          "internalType": "address",
          "name": "spender",
          "type": "address"
        },
        {
          "indexed": false,
          "internalType": "uint256",
          "name": "value",
          "type": "uint256"
        }
      ],
      "name": "Approval",
      "type": "event"
    },
    {
      "anonymous": false,
      "inputs": [
        {
          "indexed": true,
          "internalType": "address",
          "name": "previousOwner",
          "type": "address"
        },
        {
          "indexed": true,
          "internalType": "address",
          "name": "newOwner",
          "type": "address"
        }
      ],
      "name": "OwnershipTransferred",
      "type": "event"
    },
    {
      "anonymous": false,
      "inputs": [
        {
          "indexed": false,
          "internalType": "address",
          "name": "account",
          "type": "address"
        }
      ],
      "name": "Paused",
      "type": "event"
    },
    {
      "anonymous": false,
      "inputs": [
        {
          "indexed": false,
          "internalType": "uint256",
          "name": "id",
          "type": "uint256"
        }
      ],
      "name": "Snapshot",
      "type": "event"
    },
    {
      "anonymous": false,
      "inputs": [
        {
          "indexed": true,
          "internalType": "address",
          "name": "from",
          "type": "address"
        },
        {
          "indexed": true,
          "internalType": "address",
          "name": "to",
          "type": "address"
        },
        {
          "indexed": false,
          "internalType": "uint256",
          "name": "value",
          "type": "uint256"
        }
      ],
      "name": "Transfer",
      "type": "event"
    },
    {
      "anonymous": false,
      "inputs": [
        {
          "indexed": false,
          "internalType": "address",
          "name": "account",
          "type": "address"
        }
      ],
      "name": "Unpaused",
      "type": "event"
    },
    {
      "inputs": [
        {
          "internalType": "address",
          "name": "owner",
          "type": "address"
        },
        {
          "internalType": "address",
          "name": "spender",
          "type": "address"
        }
      ],
      "name": "allowance",
      "outputs": [
        {
          "internalType": "uint256",
          "name": "",
          "type": "uint256"
        }
      ],
      "stateMutability": "view",
      "type": "function"
    },
    {
      "inputs": [
        {
          "internalType": "address",
          "name": "spender",
          "type": "address"
        },
        {
          "internalType": "uint256",
          "name": "amount",
          "type": "uint256"
        }
      ],
      "name": "approve",
      "outputs": [
        {
          "internalType": "bool",
          "name": "",
          "type": "bool"
        }
      ],
      "stateMutability": "nonpayable",
      "type": "function"
    },
    {
      "inputs": [
        {
          "internalType": "address",
          "name": "account",
          "type": "address"
        }
      ],
      "name": "balanceOf",
      "outputs": [
        {
          "internalType": "uint256",
          "name": "",
          "type": "uint256"
        }
      ],
      "stateMutability": "view",
      "type": "function"
    },
    {
      "inputs": [
        {
          "internalType": "address",
          "name": "account",
          "type": "address"
        },
        {
          "internalType": "uint256",
          "name": "snapshotId",
          "type": "uint256"
        }
      ],
      "name": "balanceOfAt",
      "outputs": [
        {
          "internalType": "uint256",
          "name": "",
          "type": "uint256"
        }
      ],
      "stateMutability": "view",
      "type": "function"
    },
    {
      "inputs": [
        {
          "internalType": "address",
          "name": "userAddress",
          "type": "address"
        }
      ],
      "name": "balanceOfUser",
      "outputs": [
        {
          "internalType": "uint256",
          "name": "",
          "type": "uint256"
        }
      ],
      "stateMutability": "view",
      "type": "function"
    },
    {
      "inputs": [
        {
          "internalType": "uint256",
          "name": "amount",
          "type": "uint256"
        }
      ],
      "name": "burn",
      "outputs": [],
      "stateMutability": "nonpayable",
      "type": "function"
    },
    {
      "inputs": [
        {
          "internalType": "address",
          "name": "account",
          "type": "address"
        },
        {
          "internalType": "uint256",
          "name": "amount",
          "type": "uint256"
        }
      ],
      "name": "burnFrom",
      "outputs": [],
      "stateMutability": "nonpayable",
      "type": "function"
    },
    {
      "inputs": [
        {
          "internalType": "address",
          "name": "account",
          "type": "address"
        },
        {
          "internalType": "uint256",
          "name": "amount",
          "type": "uint256"
        }
      ],
      "name": "burnTokens",
      "outputs": [
        {
          "internalType": "string",
          "name": "",
          "type": "string"
        }
      ],
      "stateMutability": "nonpayable",
      "type": "function"
    },
    {
      "inputs": [],
      "name": "decimals",
      "outputs": [
        {
          "internalType": "uint8",
          "name": "",
          "type": "uint8"
        }
      ],
      "stateMutability": "view",
      "type": "function"
    },
    {
      "inputs": [
        {
          "internalType": "address",
          "name": "spender",
          "type": "address"
        },
        {
          "internalType": "uint256",
          "name": "subtractedValue",
          "type": "uint256"
        }
      ],
      "name": "decreaseAllowance",
      "outputs": [
        {
          "internalType": "bool",
          "name": "",
          "type": "bool"
        }
      ],
      "stateMutability": "nonpayable",
      "type": "function"
    },
    {
      "inputs": [
        {
          "internalType": "address",
          "name": "spender",
          "type": "address"
        },
        {
          "internalType": "uint256",
          "name": "addedValue",
          "type": "uint256"
        }
      ],
      "name": "increaseAllowance",
      "outputs": [
        {
          "internalType": "bool",
          "name": "",
          "type": "bool"
        }
      ],
      "stateMutability": "nonpayable",
      "type": "function"
    },
    {
      "inputs": [
        {
          "internalType": "address",
          "name": "to",
          "type": "address"
        },
        {
          "internalType": "uint256",
          "name": "amount",
          "type": "uint256"
        }
      ],
      "name": "mint",
      "outputs": [],
      "stateMutability": "nonpayable",
      "type": "function"
    },
    {
      "inputs": [],
      "name": "name",
      "outputs": [
        {
          "internalType": "string",
          "name": "",
          "type": "string"
        }
      ],
      "stateMutability": "view",
      "type": "function"
    },
    {
      "inputs": [],
      "name": "owner",
      "outputs": [
        {
          "internalType": "address",
          "name": "",
          "type": "address"
        }
      ],
      "stateMutability": "view",
      "type": "function"
    },
    {
      "inputs": [],
      "name": "pause",
      "outputs": [],
      "stateMutability": "nonpayable",
      "type": "function"
    },
    {
      "inputs": [],
      "name": "paused",
      "outputs": [
        {
          "internalType": "bool",
          "name": "",
          "type": "bool"
        }
      ],
      "stateMutability": "view",
      "type": "function"
    },
    {
      "inputs": [],
      "name": "renounceOwnership",
      "outputs": [],
      "stateMutability": "nonpayable",
      "type": "function"
    },
    {
      "inputs": [],
      "name": "snapshot",
      "outputs": [
        {
          "internalType": "uint256",
          "name": "",
          "type": "uint256"
        }
      ],
      "stateMutability": "nonpayable",
      "type": "function"
    },
    {
      "inputs": [],
      "name": "symbol",
      "outputs": [
        {
          "internalType": "string",
          "name": "",
          "type": "string"
        }
      ],
      "stateMutability": "view",
      "type": "function"
    },
    {
      "inputs": [],
      "name": "totalSupply",
      "outputs": [
        {
          "internalType": "uint256",
          "name": "",
          "type": "uint256"
        }
      ],
      "stateMutability": "view",
      "type": "function"
    },
    {
      "inputs": [
        {
          "internalType": "uint256",
          "name": "snapshotId",
          "type": "uint256"
        }
      ],
      "name": "totalSupplyAt",
      "outputs": [
        {
          "internalType": "uint256",
          "name": "",
          "type": "uint256"
        }
      ],
      "stateMutability": "view",
      "type": "function"
    },
    {
      "inputs": [
        {
          "internalType": "address",
          "name": "to",
          "type": "address"
        },
        {
          "internalType": "uint256",
          "name": "amount",
          "type": "uint256"
        }
      ],
      "name": "transfer",
      "outputs": [
        {
          "internalType": "bool",
          "name": "",
          "type": "bool"
        }
      ],
      "stateMutability": "nonpayable",
      "type": "function"
    },
    {
      "inputs": [
        {
          "internalType": "address",
          "name": "from",
          "type": "address"
        },
        {
          "internalType": "address",
          "name": "to",
          "type": "address"
        },
        {
          "internalType": "uint256",
          "name": "amount",
          "type": "uint256"
        }
      ],
      "name": "transferFrom",
      "outputs": [
        {
          "internalType": "bool",
          "name": "",
          "type": "bool"
        }
      ],
      "stateMutability": "nonpayable",
      "type": "function"
    },
    {
      "inputs": [
        {
          "internalType": "address",
          "name": "newOwner",
          "type": "address"
        }
      ],
      "name": "transferOwnership",
      "outputs": [],
      "stateMutability": "nonpayable",
      "type": "function"
    },
    {
      "inputs": [
        {
          "internalType": "address",
          "name": "to",
          "type": "address"
        },
        {
          "internalType": "uint256",
          "name": "amount",
          "type": "uint256"
        }
      ],
      "name": "transferToUser",
      "outputs": [
        {
          "internalType": "bool",
          "name": "",
          "type": "bool"
        }
      ],
      "stateMutability": "nonpayable",
      "type": "function"
    },
    {
      "inputs": [],
      "name": "unpause",
      "outputs": [],
      "stateMutability": "nonpayable",
      "type": "function"
    }
  ],
  "bytecode": "0x60806040523480156200001157600080fd5b506040518060400160405280600681526020017f444672616d6500000000000000000000000000000000000000000000000000008152506040518060400160405280600381526020017f444654000000000000000000000000000000000000000000000000000000000081525081600390816200008f91906200096e565b508060049081620000a191906200096e565b505050620000c4620000b86200012560201b60201c565b6200012d60201b60201c565b6000600960146101000a81548160ff0219169083151502179055506200011f33620000f4620001f360201b60201c565b600a62000102919062000be5565b6305f5e10062000113919062000c36565b620001fc60201b60201c565b62000e49565b600033905090565b6000600960009054906101000a900473ffffffffffffffffffffffffffffffffffffffff16905081600960006101000a81548173ffffffffffffffffffffffffffffffffffffffff021916908373ffffffffffffffffffffffffffffffffffffffff1602179055508173ffffffffffffffffffffffffffffffffffffffff168173ffffffffffffffffffffffffffffffffffffffff167f8be0079c531659141344cd1fd0a4f28419497f9722a3daafe3b4186f6b6457e060405160405180910390a35050565b60006012905090565b600073ffffffffffffffffffffffffffffffffffffffff168273ffffffffffffffffffffffffffffffffffffffff16036200026e576040517f08c379a0000000000000000000000000000000000000000000000000000000008152600401620002659062000ce2565b60405180910390fd5b62000282600083836200037460201b60201c565b806002600082825462000296919062000d04565b92505081905550806000808473ffffffffffffffffffffffffffffffffffffffff1673ffffffffffffffffffffffffffffffffffffffff1681526020019081526020016000206000828254620002ed919062000d04565b925050819055508173ffffffffffffffffffffffffffffffffffffffff16600073ffffffffffffffffffffffffffffffffffffffff167fddf252ad1be2c89b69c2b068fc378daa952ba7f163c4a11628f55a4df523b3ef8360405162000354919062000d50565b60405180910390a36200037060008383620003a160201b60201c565b5050565b62000384620003a660201b60201c565b6200039c838383620003fb60201b62000ad21760201c565b505050565b505050565b620003b6620004f460201b60201c565b15620003f9576040517f08c379a0000000000000000000000000000000000000000000000000000000008152600401620003f09062000dbd565b60405180910390fd5b565b620004138383836200050b60201b62000b8a1760201c565b600073ffffffffffffffffffffffffffffffffffffffff168373ffffffffffffffffffffffffffffffffffffffff16036200046f5762000459826200051060201b60201c565b620004696200057360201b60201c565b620004ef565b600073ffffffffffffffffffffffffffffffffffffffff168273ffffffffffffffffffffffffffffffffffffffff1603620004cb57620004b5836200051060201b60201c565b620004c56200057360201b60201c565b620004ee565b620004dc836200051060201b60201c565b620004ed826200051060201b60201c565b5b5b505050565b6000600960149054906101000a900460ff16905090565b505050565b62000570600560008373ffffffffffffffffffffffffffffffffffffffff1673ffffffffffffffffffffffffffffffffffffffff16815260200190815260200160002062000564836200059760201b60201c565b620005df60201b60201c565b50565b620005956006620005896200066b60201b60201c565b620005df60201b60201c565b565b60008060008373ffffffffffffffffffffffffffffffffffffffff1673ffffffffffffffffffffffffffffffffffffffff168152602001908152602001600020549050919050565b6000620005f16200067560201b60201c565b90508062000608846000016200069360201b60201c565b1015620006665782600001819080600181540180825580915050600190039060005260206000200160009091909190915055826001018290806001815401808255809150506001900390600052602060002001600090919091909150555b505050565b6000600254905090565b60006200068e6008620006e660201b62000b8f1760201c565b905090565b600080828054905003620006ab5760009050620006e1565b8160018380549050620006bf919062000ddf565b81548110620006d357620006d262000e1a565b5b906000526020600020015490505b919050565b600081600001549050919050565b600081519050919050565b7f4e487b7100000000000000000000000000000000000000000000000000000000600052604160045260246000fd5b7f4e487b7100000000000000000000000000000000000000000000000000000000600052602260045260246000fd5b600060028204905060018216806200077657607f821691505b6020821081036200078c576200078b6200072e565b5b50919050565b60008190508160005260206000209050919050565b60006020601f8301049050919050565b600082821b905092915050565b600060088302620007f67fffffffffffffffffffffffffffffffffffffffffffffffffffffffffffffffff82620007b7565b620008028683620007b7565b95508019841693508086168417925050509392505050565b6000819050919050565b6000819050919050565b60006200084f6200084962000843846200081a565b62000824565b6200081a565b9050919050565b6000819050919050565b6200086b836200082e565b620008836200087a8262000856565b848454620007c4565b825550505050565b600090565b6200089a6200088b565b620008a781848462000860565b505050565b5b81811015620008cf57620008c360008262000890565b600181019050620008ad565b5050565b601f8211156200091e57620008e88162000792565b620008f384620007a7565b8101602085101562000903578190505b6200091b6200091285620007a7565b830182620008ac565b50505b505050565b600082821c905092915050565b6000620009436000198460080262000923565b1980831691505092915050565b60006200095e838362000930565b9150826002028217905092915050565b6200097982620006f4565b67ffffffffffffffff811115620009955762000994620006ff565b5b620009a182546200075d565b620009ae828285620008d3565b600060209050601f831160018114620009e65760008415620009d1578287015190505b620009dd858262000950565b86555062000a4d565b601f198416620009f68662000792565b60005b8281101562000a2057848901518255600182019150602085019450602081019050620009f9565b8683101562000a40578489015162000a3c601f89168262000930565b8355505b6001600288020188555050505b505050505050565b7f4e487b7100000000000000000000000000000000000000000000000000000000600052601160045260246000fd5b60008160011c9050919050565b6000808291508390505b600185111562000ae35780860481111562000abb5762000aba62000a55565b5b600185161562000acb5780820291505b808102905062000adb8562000a84565b945062000a9b565b94509492505050565b60008262000afe576001905062000bd1565b8162000b0e576000905062000bd1565b816001811462000b27576002811462000b325762000b68565b600191505062000bd1565b60ff84111562000b475762000b4662000a55565b5b8360020a91508482111562000b615762000b6062000a55565b5b5062000bd1565b5060208310610133831016604e8410600b841016171562000ba25782820a90508381111562000b9c5762000b9b62000a55565b5b62000bd1565b62000bb1848484600162000a91565b9250905081840481111562000bcb5762000bca62000a55565b5b81810290505b9392505050565b600060ff82169050919050565b600062000bf2826200081a565b915062000bff8362000bd8565b925062000c2e7fffffffffffffffffffffffffffffffffffffffffffffffffffffffffffffffff848462000aec565b905092915050565b600062000c43826200081a565b915062000c50836200081a565b925082820262000c60816200081a565b9150828204841483151762000c7a5762000c7962000a55565b5b5092915050565b600082825260208201905092915050565b7f45524332303a206d696e7420746f20746865207a65726f206164647265737300600082015250565b600062000cca601f8362000c81565b915062000cd78262000c92565b602082019050919050565b6000602082019050818103600083015262000cfd8162000cbb565b9050919050565b600062000d11826200081a565b915062000d1e836200081a565b925082820190508082111562000d395762000d3862000a55565b5b92915050565b62000d4a816200081a565b82525050565b600060208201905062000d67600083018462000d3f565b92915050565b7f5061757361626c653a2070617573656400000000000000000000000000000000600082015250565b600062000da560108362000c81565b915062000db28262000d6d565b602082019050919050565b6000602082019050818103600083015262000dd88162000d96565b9050919050565b600062000dec826200081a565b915062000df9836200081a565b925082820390508181111562000e145762000e1362000a55565b5b92915050565b7f4e487b7100000000000000000000000000000000000000000000000000000000600052603260045260246000fd5b6127128062000e596000396000f3fe608060405234801561001057600080fd5b506004361061018e5760003560e01c80635f7807a4116100de57806395d89b4111610097578063a457c2d711610071578063a457c2d714610487578063a9059cbb146104b7578063dd62ed3e146104e7578063f2fde38b146105175761018e565b806395d89b411461041b5780639711715a14610439578063981b24d0146104575761018e565b80635f7807a41461036d57806370a082311461039d578063715018a6146103cd57806379cc6790146103d75780638456cb59146103f35780638da5cb5b146103fd5761018e565b8063313ce5671161014b57806340c10f191161012557806340c10f19146102e757806342966c68146103035780634ee2cd7e1461031f5780635c975abb1461034f5761018e565b8063313ce5671461028f57806339509351146102ad5780633f4ba83a146102dd5761018e565b806306fdde0314610193578063095ea7b3146101b15780630d1118ce146101e157806312cae7af1461021157806318160ddd1461024157806323b872dd1461025f575b600080fd5b61019b610533565b6040516101a89190611a97565b60405180910390f35b6101cb60048036038101906101c69190611b52565b6105c5565b6040516101d89190611bad565b60405180910390f35b6101fb60048036038101906101f69190611b52565b6105e8565b6040516102089190611a97565b60405180910390f35b61022b60048036038101906102269190611bc8565b610632565b6040516102389190611c04565b60405180910390f35b610249610644565b6040516102569190611c04565b60405180910390f35b61027960048036038101906102749190611c1f565b61064e565b6040516102869190611bad565b60405180910390f35b61029761067d565b6040516102a49190611c8e565b60405180910390f35b6102c760048036038101906102c29190611b52565b610686565b6040516102d49190611bad565b60405180910390f35b6102e56106bd565b005b61030160048036038101906102fc9190611b52565b6106cf565b005b61031d60048036038101906103189190611ca9565b6106e5565b005b61033960048036038101906103349190611b52565b6106f9565b6040516103469190611c04565b60405180910390f35b610357610769565b6040516103649190611bad565b60405180910390f35b61038760048036038101906103829190611b52565b610780565b6040516103949190611bad565b60405180910390f35b6103b760048036038101906103b29190611bc8565b61079c565b6040516103c49190611c04565b60405180910390f35b6103d56107e4565b005b6103f160048036038101906103ec9190611b52565b6107f8565b005b6103fb610818565b005b61040561082a565b6040516104129190611ce5565b60405180910390f35b610423610854565b6040516104309190611a97565b60405180910390f35b6104416108e6565b60405161044e9190611c04565b60405180910390f35b610471600480360381019061046c9190611ca9565b6108fd565b60405161047e9190611c04565b60405180910390f35b6104a1600480360381019061049c9190611b52565b61092e565b6040516104ae9190611bad565b60405180910390f35b6104d160048036038101906104cc9190611b52565b6109a5565b6040516104de9190611bad565b60405180910390f35b61050160048036038101906104fc9190611d00565b6109c8565b60405161050e9190611c04565b60405180910390f35b610531600480360381019061052c9190611bc8565b610a4f565b005b60606003805461054290611d6f565b80601f016020809104026020016040519081016040528092919081815260200182805461056e90611d6f565b80156105bb5780601f10610590576101008083540402835291602001916105bb565b820191906000526020600020905b81548152906001019060200180831161059e57829003601f168201915b5050505050905090565b6000806105d0610b9d565b90506105dd818585610ba5565b600191505092915050565b60606105f48383610d6e565b6040518060400160405280601881526020017f546f6b656e732073756363657366756c6c79206275726e740000000000000000815250905092915050565b600061063d8261079c565b9050919050565b6000600254905090565b600080610659610b9d565b9050610666858285610f44565b610671858585610fd0565b60019150509392505050565b60006012905090565b600080610691610b9d565b90506106b28185856106a385896109c8565b6106ad9190611dcf565b610ba5565b600191505092915050565b6106c561124f565b6106cd6112cd565b565b6106d761124f565b6106e18282611330565b5050565b6106f66106f0610b9d565b82610d6e565b50565b600080600061074684600560008873ffffffffffffffffffffffffffffffffffffffff1673ffffffffffffffffffffffffffffffffffffffff16815260200190815260200160002061148f565b915091508161075d576107588561079c565b61075f565b805b9250505092915050565b6000600960149054906101000a900460ff16905090565b600061078a61124f565b61079483836109a5565b905092915050565b60008060008373ffffffffffffffffffffffffffffffffffffffff1673ffffffffffffffffffffffffffffffffffffffff168152602001908152602001600020549050919050565b6107ec61124f565b6107f66000611584565b565b61080a82610804610b9d565b83610f44565b6108148282610d6e565b5050565b61082061124f565b61082861164a565b565b6000600960009054906101000a900473ffffffffffffffffffffffffffffffffffffffff16905090565b60606004805461086390611d6f565b80601f016020809104026020016040519081016040528092919081815260200182805461088f90611d6f565b80156108dc5780601f106108b1576101008083540402835291602001916108dc565b820191906000526020600020905b8154815290600101906020018083116108bf57829003601f168201915b5050505050905090565b60006108f061124f565b6108f86116ad565b905090565b600080600061090d84600661148f565b91509150816109235761091e610644565b610925565b805b92505050919050565b600080610939610b9d565b9050600061094782866109c8565b90508381101561098c576040517f08c379a000000000000000000000000000000000000000000000000000000000815260040161098390611e75565b60405180910390fd5b6109998286868403610ba5565b60019250505092915050565b6000806109b0610b9d565b90506109bd818585610fd0565b600191505092915050565b6000600160008473ffffffffffffffffffffffffffffffffffffffff1673ffffffffffffffffffffffffffffffffffffffff16815260200190815260200160002060008373ffffffffffffffffffffffffffffffffffffffff1673ffffffffffffffffffffffffffffffffffffffff16815260200190815260200160002054905092915050565b610a5761124f565b600073ffffffffffffffffffffffffffffffffffffffff168173ffffffffffffffffffffffffffffffffffffffff1603610ac6576040517f08c379a0000000000000000000000000000000000000000000000000000000008152600401610abd90611f07565b60405180910390fd5b610acf81611584565b50565b610add838383610b8a565b600073ffffffffffffffffffffffffffffffffffffffff168373ffffffffffffffffffffffffffffffffffffffff1603610b2757610b1a82611703565b610b22611756565b610b85565b600073ffffffffffffffffffffffffffffffffffffffff168273ffffffffffffffffffffffffffffffffffffffff1603610b7157610b6483611703565b610b6c611756565b610b84565b610b7a83611703565b610b8382611703565b5b5b505050565b505050565b600081600001549050919050565b600033905090565b600073ffffffffffffffffffffffffffffffffffffffff168373ffffffffffffffffffffffffffffffffffffffff1603610c14576040517f08c379a0000000000000000000000000000000000000000000000000000000008152600401610c0b90611f99565b60405180910390fd5b600073ffffffffffffffffffffffffffffffffffffffff168273ffffffffffffffffffffffffffffffffffffffff1603610c83576040517f08c379a0000000000000000000000000000000000000000000000000000000008152600401610c7a9061202b565b60405180910390fd5b80600160008573ffffffffffffffffffffffffffffffffffffffff1673ffffffffffffffffffffffffffffffffffffffff16815260200190815260200160002060008473ffffffffffffffffffffffffffffffffffffffff1673ffffffffffffffffffffffffffffffffffffffff168152602001908152602001600020819055508173ffffffffffffffffffffffffffffffffffffffff168373ffffffffffffffffffffffffffffffffffffffff167f8c5be1e5ebec7d5bd14f71427d1e84f3dd0314c0f7b2291e5b200ac8c7c3b92583604051610d619190611c04565b60405180910390a3505050565b600073ffffffffffffffffffffffffffffffffffffffff168273ffffffffffffffffffffffffffffffffffffffff1603610ddd576040517f08c379a0000000000000000000000000000000000000000000000000000000008152600401610dd4906120bd565b60405180910390fd5b610de98260008361176a565b60008060008473ffffffffffffffffffffffffffffffffffffffff1673ffffffffffffffffffffffffffffffffffffffff16815260200190815260200160002054905081811015610e6f576040517f08c379a0000000000000000000000000000000000000000000000000000000008152600401610e669061214f565b60405180910390fd5b8181036000808573ffffffffffffffffffffffffffffffffffffffff1673ffffffffffffffffffffffffffffffffffffffff168152602001908152602001600020819055508160026000828254610ec6919061216f565b92505081905550600073ffffffffffffffffffffffffffffffffffffffff168373ffffffffffffffffffffffffffffffffffffffff167fddf252ad1be2c89b69c2b068fc378daa952ba7f163c4a11628f55a4df523b3ef84604051610f2b9190611c04565b60405180910390a3610f3f83600084611782565b505050565b6000610f5084846109c8565b90507fffffffffffffffffffffffffffffffffffffffffffffffffffffffffffffffff8114610fca5781811015610fbc576040517f08c379a0000000000000000000000000000000000000000000000000000000008152600401610fb3906121ef565b60405180910390fd5b610fc98484848403610ba5565b5b50505050565b600073ffffffffffffffffffffffffffffffffffffffff168373ffffffffffffffffffffffffffffffffffffffff160361103f576040517f08c379a000000000000000000000000000000000000000000000000000000000815260040161103690612281565b60405180910390fd5b600073ffffffffffffffffffffffffffffffffffffffff168273ffffffffffffffffffffffffffffffffffffffff16036110ae576040517f08c379a00000000000000000000000000000000000000000000000000000000081526004016110a590612313565b60405180910390fd5b6110b983838361176a565b60008060008573ffffffffffffffffffffffffffffffffffffffff1673ffffffffffffffffffffffffffffffffffffffff1681526020019081526020016000205490508181101561113f576040517f08c379a0000000000000000000000000000000000000000000000000000000008152600401611136906123a5565b60405180910390fd5b8181036000808673ffffffffffffffffffffffffffffffffffffffff1673ffffffffffffffffffffffffffffffffffffffff16815260200190815260200160002081905550816000808573ffffffffffffffffffffffffffffffffffffffff1673ffffffffffffffffffffffffffffffffffffffff16815260200190815260200160002060008282546111d29190611dcf565b925050819055508273ffffffffffffffffffffffffffffffffffffffff168473ffffffffffffffffffffffffffffffffffffffff167fddf252ad1be2c89b69c2b068fc378daa952ba7f163c4a11628f55a4df523b3ef846040516112369190611c04565b60405180910390a3611249848484611782565b50505050565b611257610b9d565b73ffffffffffffffffffffffffffffffffffffffff1661127561082a565b73ffffffffffffffffffffffffffffffffffffffff16146112cb576040517f08c379a00000000000000000000000000000000000000000000000000000000081526004016112c290612411565b60405180910390fd5b565b6112d5611787565b6000600960146101000a81548160ff0219169083151502179055507f5db9ee0a495bf2e6ff9c91a7834c1ba4fdd244a5e8aa4e537bd38aeae4b073aa611319610b9d565b6040516113269190611ce5565b60405180910390a1565b600073ffffffffffffffffffffffffffffffffffffffff168273ffffffffffffffffffffffffffffffffffffffff160361139f576040517f08c379a00000000000000000000000000000000000000000000000000000000081526004016113969061247d565b60405180910390fd5b6113ab6000838361176a565b80600260008282546113bd9190611dcf565b92505081905550806000808473ffffffffffffffffffffffffffffffffffffffff1673ffffffffffffffffffffffffffffffffffffffff16815260200190815260200160002060008282546114129190611dcf565b925050819055508173ffffffffffffffffffffffffffffffffffffffff16600073ffffffffffffffffffffffffffffffffffffffff167fddf252ad1be2c89b69c2b068fc378daa952ba7f163c4a11628f55a4df523b3ef836040516114779190611c04565b60405180910390a361148b60008383611782565b5050565b600080600084116114d5576040517f08c379a00000000000000000000000000000000000000000000000000000000081526004016114cc906124e9565b60405180910390fd5b6114dd6117d0565b84111561151f576040517f08c379a000000000000000000000000000000000000000000000000000000000815260040161151690612555565b60405180910390fd5b600061153785856000016117e190919063ffffffff16565b90508360000180549050810361155457600080925092505061157d565b600184600101828154811061156c5761156b612575565b5b906000526020600020015492509250505b9250929050565b6000600960009054906101000a900473ffffffffffffffffffffffffffffffffffffffff16905081600960006101000a81548173ffffffffffffffffffffffffffffffffffffffff021916908373ffffffffffffffffffffffffffffffffffffffff1602179055508173ffffffffffffffffffffffffffffffffffffffff168173ffffffffffffffffffffffffffffffffffffffff167f8be0079c531659141344cd1fd0a4f28419497f9722a3daafe3b4186f6b6457e060405160405180910390a35050565b6116526118ba565b6001600960146101000a81548160ff0219169083151502179055507f62e78cea01bee320cd4e420270b5ea74000d11b0c9f74754ebdbfc544b05a258611696610b9d565b6040516116a39190611ce5565b60405180910390a1565b60006116b96008611904565b60006116c36117d0565b90507f8030e83b04d87bef53480e26263266d6ca66863aa8506aca6f2559d18aa1cb67816040516116f49190611c04565b60405180910390a18091505090565b611753600560008373ffffffffffffffffffffffffffffffffffffffff1673ffffffffffffffffffffffffffffffffffffffff16815260200190815260200160002061174e8361079c565b61191a565b50565b6117686006611763610644565b61191a565b565b6117726118ba565b61177d838383610ad2565b505050565b505050565b61178f610769565b6117ce576040517f08c379a00000000000000000000000000000000000000000000000000000000081526004016117c5906125f0565b60405180910390fd5b565b60006117dc6008610b8f565b905090565b6000808380549050036117f757600090506118b4565b600080848054905090505b8082101561185b5760006118168383611995565b90508486828154811061182c5761182b612575565b5b9060005260206000200154111561184557809150611855565b6001816118529190611dcf565b92505b50611802565b60008211801561189357508385600184611875919061216f565b8154811061188657611885612575565b5b9060005260206000200154145b156118ae576001826118a5919061216f565b925050506118b4565b81925050505b92915050565b6118c2610769565b15611902576040517f08c379a00000000000000000000000000000000000000000000000000000000081526004016118f99061265c565b60405180910390fd5b565b6001816000016000828254019250508190555050565b60006119246117d0565b905080611933846000016119bb565b10156119905782600001819080600181540180825580915050600190039060005260206000200160009091909190915055826001018290806001815401808255809150506001900390600052602060002001600090919091909150555b505050565b600060028284186119a691906126ab565b8284166119b39190611dcf565b905092915050565b6000808280549050036119d15760009050611a02565b81600183805490506119e3919061216f565b815481106119f4576119f3612575565b5b906000526020600020015490505b919050565b600081519050919050565b600082825260208201905092915050565b60005b83811015611a41578082015181840152602081019050611a26565b60008484015250505050565b6000601f19601f8301169050919050565b6000611a6982611a07565b611a738185611a12565b9350611a83818560208601611a23565b611a8c81611a4d565b840191505092915050565b60006020820190508181036000830152611ab18184611a5e565b905092915050565b600080fd5b600073ffffffffffffffffffffffffffffffffffffffff82169050919050565b6000611ae982611abe565b9050919050565b611af981611ade565b8114611b0457600080fd5b50565b600081359050611b1681611af0565b92915050565b6000819050919050565b611b2f81611b1c565b8114611b3a57600080fd5b50565b600081359050611b4c81611b26565b92915050565b60008060408385031215611b6957611b68611ab9565b5b6000611b7785828601611b07565b9250506020611b8885828601611b3d565b9150509250929050565b60008115159050919050565b611ba781611b92565b82525050565b6000602082019050611bc26000830184611b9e565b92915050565b600060208284031215611bde57611bdd611ab9565b5b6000611bec84828501611b07565b91505092915050565b611bfe81611b1c565b82525050565b6000602082019050611c196000830184611bf5565b92915050565b600080600060608486031215611c3857611c37611ab9565b5b6000611c4686828701611b07565b9350506020611c5786828701611b07565b9250506040611c6886828701611b3d565b9150509250925092565b600060ff82169050919050565b611c8881611c72565b82525050565b6000602082019050611ca36000830184611c7f565b92915050565b600060208284031215611cbf57611cbe611ab9565b5b6000611ccd84828501611b3d565b91505092915050565b611cdf81611ade565b82525050565b6000602082019050611cfa6000830184611cd6565b92915050565b60008060408385031215611d1757611d16611ab9565b5b6000611d2585828601611b07565b9250506020611d3685828601611b07565b9150509250929050565b7f4e487b7100000000000000000000000000000000000000000000000000000000600052602260045260246000fd5b60006002820490506001821680611d8757607f821691505b602082108103611d9a57611d99611d40565b5b50919050565b7f4e487b7100000000000000000000000000000000000000000000000000000000600052601160045260246000fd5b6000611dda82611b1c565b9150611de583611b1c565b9250828201905080821115611dfd57611dfc611da0565b5b92915050565b7f45524332303a2064656372656173656420616c6c6f77616e63652062656c6f7760008201527f207a65726f000000000000000000000000000000000000000000000000000000602082015250565b6000611e5f602583611a12565b9150611e6a82611e03565b604082019050919050565b60006020820190508181036000830152611e8e81611e52565b9050919050565b7f4f776e61626c653a206e6577206f776e657220697320746865207a65726f206160008201527f6464726573730000000000000000000000000000000000000000000000000000602082015250565b6000611ef1602683611a12565b9150611efc82611e95565b604082019050919050565b60006020820190508181036000830152611f2081611ee4565b9050919050565b7f45524332303a20617070726f76652066726f6d20746865207a65726f2061646460008201527f7265737300000000000000000000000000000000000000000000000000000000602082015250565b6000611f83602483611a12565b9150611f8e82611f27565b604082019050919050565b60006020820190508181036000830152611fb281611f76565b9050919050565b7f45524332303a20617070726f766520746f20746865207a65726f20616464726560008201527f7373000000000000000000000000000000000000000000000000000000000000602082015250565b6000612015602283611a12565b915061202082611fb9565b604082019050919050565b6000602082019050818103600083015261204481612008565b9050919050565b7f45524332303a206275726e2066726f6d20746865207a65726f2061646472657360008201527f7300000000000000000000000000000000000000000000000000000000000000602082015250565b60006120a7602183611a12565b91506120b28261204b565b604082019050919050565b600060208201905081810360008301526120d68161209a565b9050919050565b7f45524332303a206275726e20616d6f756e7420657863656564732062616c616e60008201527f6365000000000000000000000000000000000000000000000000000000000000602082015250565b6000612139602283611a12565b9150612144826120dd565b604082019050919050565b600060208201905081810360008301526121688161212c565b9050919050565b600061217a82611b1c565b915061218583611b1c565b925082820390508181111561219d5761219c611da0565b5b92915050565b7f45524332303a20696e73756666696369656e7420616c6c6f77616e6365000000600082015250565b60006121d9601d83611a12565b91506121e4826121a3565b602082019050919050565b60006020820190508181036000830152612208816121cc565b9050919050565b7f45524332303a207472616e736665722066726f6d20746865207a65726f20616460008201527f6472657373000000000000000000000000000000000000000000000000000000602082015250565b600061226b602583611a12565b91506122768261220f565b604082019050919050565b6000602082019050818103600083015261229a8161225e565b9050919050565b7f45524332303a207472616e7366657220746f20746865207a65726f206164647260008201527f6573730000000000000000000000000000000000000000000000000000000000602082015250565b60006122fd602383611a12565b9150612308826122a1565b604082019050919050565b6000602082019050818103600083015261232c816122f0565b9050919050565b7f45524332303a207472616e7366657220616d6f756e742065786365656473206260008201527f616c616e63650000000000000000000000000000000000000000000000000000602082015250565b600061238f602683611a12565b915061239a82612333565b604082019050919050565b600060208201905081810360008301526123be81612382565b9050919050565b7f4f776e61626c653a2063616c6c6572206973206e6f7420746865206f776e6572600082015250565b60006123fb602083611a12565b9150612406826123c5565b602082019050919050565b6000602082019050818103600083015261242a816123ee565b9050919050565b7f45524332303a206d696e7420746f20746865207a65726f206164647265737300600082015250565b6000612467601f83611a12565b915061247282612431565b602082019050919050565b600060208201905081810360008301526124968161245a565b9050919050565b7f4552433230536e617073686f743a206964206973203000000000000000000000600082015250565b60006124d3601683611a12565b91506124de8261249d565b602082019050919050565b60006020820190508181036000830152612502816124c6565b9050919050565b7f4552433230536e617073686f743a206e6f6e6578697374656e74206964000000600082015250565b600061253f601d83611a12565b915061254a82612509565b602082019050919050565b6000602082019050818103600083015261256e81612532565b9050919050565b7f4e487b7100000000000000000000000000000000000000000000000000000000600052603260045260246000fd5b7f5061757361626c653a206e6f7420706175736564000000000000000000000000600082015250565b60006125da601483611a12565b91506125e5826125a4565b602082019050919050565b60006020820190508181036000830152612609816125cd565b9050919050565b7f5061757361626c653a2070617573656400000000000000000000000000000000600082015250565b6000612646601083611a12565b915061265182612610565b602082019050919050565b6000602082019050818103600083015261267581612639565b9050919050565b7f4e487b7100000000000000000000000000000000000000000000000000000000600052601260045260246000fd5b60006126b682611b1c565b91506126c183611b1c565b9250826126d1576126d061267c565b5b82820490509291505056fea2646970667358221220ec2d835c0ff61cec679806b71b499925da2bea7a7f6975ce96404b384f52295a64736f6c63430008110033",
  "linkReferences": {},
  "deployedLinkReferences": {}
}